{
  "contractName": "Market",
  "abi": [
    {
      "anonymous": false,
      "inputs": [],
      "name": "Aborted",
      "type": "event"
    },
    {
      "anonymous": false,
      "inputs": [
        {
          "indexed": false,
          "internalType": "address",
          "name": "winner",
          "type": "address"
        },
        {
          "indexed": false,
          "internalType": "uint256",
          "name": "highestBid",
          "type": "uint256"
        }
      ],
      "name": "AuctionEnded",
      "type": "event"
    },
    {
      "anonymous": false,
      "inputs": [
        {
          "indexed": false,
          "internalType": "address",
          "name": "winner",
          "type": "address"
        },
        {
          "indexed": false,
          "internalType": "uint256",
          "name": "highestBid",
          "type": "uint256"
        }
      ],
      "name": "AuctionStarted",
      "type": "event"
    },
    {
      "anonymous": false,
      "inputs": [
        {
          "indexed": true,
          "internalType": "address",
          "name": "beneficiary",
          "type": "address"
        },
        {
          "indexed": true,
          "internalType": "uint256",
          "name": "index",
          "type": "uint256"
        }
      ],
      "name": "ListingChanged",
      "type": "event"
    },
    {
      "anonymous": false,
      "inputs": [
        {
          "indexed": true,
          "internalType": "uint256",
          "name": "auction_id",
          "type": "uint256"
        },
        {
          "indexed": false,
          "internalType": "address",
          "name": "beneficiary",
          "type": "address"
        },
        {
          "indexed": false,
          "internalType": "uint256",
          "name": "price",
          "type": "uint256"
        },
        {
          "indexed": false,
          "internalType": "string",
          "name": "item_name",
          "type": "string"
        },
        {
          "indexed": false,
          "internalType": "string",
          "name": "item_description",
          "type": "string"
        }
      ],
      "name": "ListingCreated",
      "type": "event"
    },
    {
      "anonymous": false,
      "inputs": [
        {
          "components": [
            {
              "internalType": "uint256",
              "name": "auction_id",
              "type": "uint256"
            },
            {
              "internalType": "address payable",
              "name": "beneficiary",
              "type": "address"
            },
            {
              "internalType": "address payable",
              "name": "buyer",
              "type": "address"
            },
            {
              "internalType": "uint256",
              "name": "price",
              "type": "uint256"
            },
            {
              "internalType": "string",
              "name": "item_name",
              "type": "string"
            },
            {
              "internalType": "string",
              "name": "item_description",
              "type": "string"
            },
            {
              "internalType": "bool",
              "name": "sold_or_withdrawn",
              "type": "bool"
            },
            {
              "internalType": "bool",
              "name": "buyer_alloted",
              "type": "bool"
            },
            {
              "internalType": "string",
              "name": "pubkey",
              "type": "string"
            },
            {
              "internalType": "string",
              "name": "H",
              "type": "string"
            },
            {
              "internalType": "enum Market.State",
              "name": "state",
              "type": "uint8"
            }
          ],
          "indexed": false,
          "internalType": "struct Market.listings",
          "name": "list",
          "type": "tuple"
        }
      ],
      "name": "PurchaseComplete",
      "type": "event"
    },
    {
      "anonymous": false,
      "inputs": [
        {
          "components": [
            {
              "internalType": "uint256",
              "name": "auction_id",
              "type": "uint256"
            },
            {
              "internalType": "address payable",
              "name": "beneficiary",
              "type": "address"
            },
            {
              "internalType": "address payable",
              "name": "buyer",
              "type": "address"
            },
            {
              "internalType": "uint256",
              "name": "price",
              "type": "uint256"
            },
            {
              "internalType": "string",
              "name": "item_name",
              "type": "string"
            },
            {
              "internalType": "string",
              "name": "item_description",
              "type": "string"
            },
            {
              "internalType": "bool",
              "name": "sold_or_withdrawn",
              "type": "bool"
            },
            {
              "internalType": "bool",
              "name": "buyer_alloted",
              "type": "bool"
            },
            {
              "internalType": "string",
              "name": "pubkey",
              "type": "string"
            },
            {
              "internalType": "string",
              "name": "H",
              "type": "string"
            },
            {
              "internalType": "enum Market.State",
              "name": "state",
              "type": "uint8"
            }
          ],
          "indexed": false,
          "internalType": "struct Market.listings",
          "name": "list",
          "type": "tuple"
        },
        {
          "indexed": true,
          "internalType": "address",
          "name": "buyer",
          "type": "address"
        },
        {
          "indexed": false,
          "internalType": "string",
          "name": "pub_key",
          "type": "string"
        }
      ],
      "name": "PurchaseRequested",
      "type": "event"
    },
    {
      "anonymous": false,
      "inputs": [
        {
          "indexed": true,
          "internalType": "uint256",
          "name": "auction_id",
          "type": "uint256"
        },
        {
          "indexed": false,
          "internalType": "string",
          "name": "H",
          "type": "string"
        }
      ],
      "name": "encryptedKey",
      "type": "event"
    },
    {
      "inputs": [],
      "name": "activelistings",
      "outputs": [
        {
          "internalType": "uint256",
          "name": "",
          "type": "uint256"
        }
      ],
      "stateMutability": "view",
      "type": "function",
      "constant": true
    },
    {
      "inputs": [],
      "name": "state",
      "outputs": [
        {
          "internalType": "enum Market.State",
          "name": "",
          "type": "uint8"
        }
      ],
      "stateMutability": "view",
      "type": "function",
      "constant": true
    },
    {
      "inputs": [
        {
          "internalType": "address",
          "name": "account",
          "type": "address"
        }
      ],
      "name": "getAccountBalance",
      "outputs": [
        {
          "internalType": "uint256",
          "name": "accountBalance",
          "type": "uint256"
        }
      ],
      "stateMutability": "view",
      "type": "function",
      "constant": true
    },
    {
      "inputs": [
        {
          "internalType": "uint256",
          "name": "price",
          "type": "uint256"
        },
        {
          "internalType": "string",
          "name": "item_name",
          "type": "string"
        },
        {
          "internalType": "string",
          "name": "item_description",
          "type": "string"
        }
      ],
      "name": "createListings",
      "outputs": [],
      "stateMutability": "payable",
      "type": "function",
      "payable": true
    },
    {
      "inputs": [],
      "name": "fetchactivelistings",
      "outputs": [
        {
          "components": [
            {
              "internalType": "uint256",
              "name": "auction_id",
              "type": "uint256"
            },
            {
              "internalType": "address payable",
              "name": "beneficiary",
              "type": "address"
            },
            {
              "internalType": "address payable",
              "name": "buyer",
              "type": "address"
            },
            {
              "internalType": "uint256",
              "name": "price",
              "type": "uint256"
            },
            {
              "internalType": "string",
              "name": "item_name",
              "type": "string"
            },
            {
              "internalType": "string",
              "name": "item_description",
              "type": "string"
            },
            {
              "internalType": "bool",
              "name": "sold_or_withdrawn",
              "type": "bool"
            },
            {
              "internalType": "bool",
              "name": "buyer_alloted",
              "type": "bool"
            },
            {
              "internalType": "string",
              "name": "pubkey",
              "type": "string"
            },
            {
              "internalType": "string",
              "name": "H",
              "type": "string"
            },
            {
              "internalType": "enum Market.State",
              "name": "state",
              "type": "uint8"
            }
          ],
          "internalType": "struct Market.listings[]",
          "name": "",
          "type": "tuple[]"
        }
      ],
      "stateMutability": "view",
      "type": "function",
      "constant": true
    },
    {
      "inputs": [],
      "name": "fetchalllistings",
      "outputs": [
        {
          "components": [
            {
              "internalType": "uint256",
              "name": "auction_id",
              "type": "uint256"
            },
            {
              "internalType": "address payable",
              "name": "beneficiary",
              "type": "address"
            },
            {
              "internalType": "address payable",
              "name": "buyer",
              "type": "address"
            },
            {
              "internalType": "uint256",
              "name": "price",
              "type": "uint256"
            },
            {
              "internalType": "string",
              "name": "item_name",
              "type": "string"
            },
            {
              "internalType": "string",
              "name": "item_description",
              "type": "string"
            },
            {
              "internalType": "bool",
              "name": "sold_or_withdrawn",
              "type": "bool"
            },
            {
              "internalType": "bool",
              "name": "buyer_alloted",
              "type": "bool"
            },
            {
              "internalType": "string",
              "name": "pubkey",
              "type": "string"
            },
            {
              "internalType": "string",
              "name": "H",
              "type": "string"
            },
            {
              "internalType": "enum Market.State",
              "name": "state",
              "type": "uint8"
            }
          ],
          "internalType": "struct Market.listings[]",
          "name": "",
          "type": "tuple[]"
        }
      ],
      "stateMutability": "view",
      "type": "function",
      "constant": true
    },
    {
      "inputs": [
        {
          "internalType": "uint256",
          "name": "auction_id",
          "type": "uint256"
        },
        {
          "internalType": "string",
          "name": "pubkey",
          "type": "string"
        }
      ],
      "name": "requestBuy",
      "outputs": [],
      "stateMutability": "payable",
      "type": "function",
      "payable": true
    },
    {
      "inputs": [
        {
          "internalType": "uint256",
          "name": "auction_id",
          "type": "uint256"
        },
        {
          "internalType": "string",
          "name": "H",
          "type": "string"
        }
      ],
      "name": "sellItem",
      "outputs": [],
      "stateMutability": "payable",
      "type": "function",
      "payable": true
    },
    {
      "inputs": [
        {
          "internalType": "uint256",
          "name": "auction_id",
          "type": "uint256"
        }
      ],
      "name": "confirmDelivery",
      "outputs": [],
      "stateMutability": "payable",
      "type": "function",
      "payable": true
    },
    {
      "inputs": [
        {
          "internalType": "uint256",
          "name": "auction_id",
          "type": "uint256"
        }
      ],
      "name": "abort",
      "outputs": [],
      "stateMutability": "nonpayable",
      "type": "function"
    }
  ],
  "bytecode": "0x608060405260008055600060015534801561001957600080fd5b50612df0806100296000396000f3fe6080604052600436106100915760003560e01c8063bc35529011610059578063bc35529014610161578063c19d93fb1461018c578063e50701f4146101b7578063f09c4905146101e0578063fd84cb97146101fc57610091565b806314e24f6d146100965780631faa3538146100b25780635fc35e98146100dd57806384febc4b1461010857806393423e9c14610124575b600080fd5b6100b060048036038101906100ab9190611b4e565b610218565b005b3480156100be57600080fd5b506100c76105aa565b6040516100d49190611f1b565b60405180910390f35b3480156100e957600080fd5b506100f2610a2b565b6040516100ff9190611f1b565b60405180910390f35b610122600480360381019061011d9190611f3d565b610e7b565b005b34801561013057600080fd5b5061014b60048036038101906101469190611fdb565b6110e1565b6040516101589190612017565b60405180910390f35b34801561016d57600080fd5b50610176611102565b6040516101839190612017565b60405180910390f35b34801561019857600080fd5b506101a1611108565b6040516101ae9190612041565b60405180910390f35b3480156101c357600080fd5b506101de60048036038101906101d9919061205c565b61111b565b005b6101fa60048036038101906101f59190611f3d565b611285565b005b6102166004803603810190610211919061205c565b61162f565b005b600085118061022657600080fd5b600080549050600160008082825461023e91906120b8565b92505081905550600180600082825461025791906120b8565b925050819055506040518061016001604052808281526020013373ffffffffffffffffffffffffffffffffffffffff168152602001600073ffffffffffffffffffffffffffffffffffffffff16815260200188815260200187878080601f016020809104026020016040519081016040528093929190818152602001838380828437600081840152601f19601f82011690508083019250505050505050815260200185858080601f016020809104026020016040519081016040528093929190818152602001838380828437600081840152601f19601f8201169050808301925050505050505081526020016000151581526020016000151581526020016040518060200160405280600081525081526020016040518060200160405280600081525081526020016001600481111561039357610392611d0a565b5b815250600260008381526020019081526020016000206000820151816000015560208201518160010160006101000a81548173ffffffffffffffffffffffffffffffffffffffff021916908373ffffffffffffffffffffffffffffffffffffffff16021790555060408201518160020160006101000a81548173ffffffffffffffffffffffffffffffffffffffff021916908373ffffffffffffffffffffffffffffffffffffffff1602179055506060820151816003015560808201518160040190816104609190612327565b5060a08201518160050190816104769190612327565b5060c08201518160060160006101000a81548160ff02191690831515021790555060e08201518160060160016101000a81548160ff0219169083151502179055506101008201518160070190816104cd9190612327565b506101208201518160080190816104e49190612327565b506101408201518160090160006101000a81548160ff0219169083600481111561051157610510611d0a565b5b0217905550905050807f6046a0779403a9b58628db4e89f8fb48ddd1844ca3df25a728482823988b43af33898989898960405161055396959493929190612455565b60405180910390a26001543373ffffffffffffffffffffffffffffffffffffffff167fe5317da7a2a5a513758a425cd8d8926ce3e58f239f2c630a790fc6b038dd3bd060405160405180910390a350505050505050565b606060008060015467ffffffffffffffff8111156105cb576105ca6120ec565b5b60405190808252806020026020018201604052801561060457816020015b6105f1611a0d565b8152602001906001900390816105e95790505b50905060005b600054811015610a2257600015156002600083815260200190815260200160002060060160009054906101000a900460ff16151503610a0f5760006002600083815260200190815260200160002090508060405180610160016040529081600082015481526020016001820160009054906101000a900473ffffffffffffffffffffffffffffffffffffffff1673ffffffffffffffffffffffffffffffffffffffff1673ffffffffffffffffffffffffffffffffffffffff1681526020016002820160009054906101000a900473ffffffffffffffffffffffffffffffffffffffff1673ffffffffffffffffffffffffffffffffffffffff1673ffffffffffffffffffffffffffffffffffffffff168152602001600382015481526020016004820180546107379061214a565b80601f01602080910402602001604051908101604052809291908181526020018280546107639061214a565b80156107b05780601f10610785576101008083540402835291602001916107b0565b820191906000526020600020905b81548152906001019060200180831161079357829003601f168201915b505050505081526020016005820180546107c99061214a565b80601f01602080910402602001604051908101604052809291908181526020018280546107f59061214a565b80156108425780601f1061081757610100808354040283529160200191610842565b820191906000526020600020905b81548152906001019060200180831161082557829003601f168201915b505050505081526020016006820160009054906101000a900460ff161515151581526020016006820160019054906101000a900460ff161515151581526020016007820180546108919061214a565b80601f01602080910402602001604051908101604052809291908181526020018280546108bd9061214a565b801561090a5780601f106108df5761010080835404028352916020019161090a565b820191906000526020600020905b8154815290600101906020018083116108ed57829003601f168201915b505050505081526020016008820180546109239061214a565b80601f016020809104026020016040519081016040528092919081815260200182805461094f9061214a565b801561099c5780601f106109715761010080835404028352916020019161099c565b820191906000526020600020905b81548152906001019060200180831161097f57829003601f168201915b505050505081526020016009820160009054906101000a900460ff1660048111156109ca576109c9611d0a565b5b60048111156109dc576109db611d0a565b5b815250508385815181106109f3576109f26124ac565b5b6020026020010181905250600184610a0b91906120b8565b9350505b8080610a1a906124db565b91505061060a565b50809250505090565b6060600080805467ffffffffffffffff811115610a4b57610a4a6120ec565b5b604051908082528060200260200182016040528015610a8457816020015b610a71611a0d565b815260200190600190039081610a695790505b50905060005b600054811015610e725760006002600083815260200190815260200160002090508060405180610160016040529081600082015481526020016001820160009054906101000a900473ffffffffffffffffffffffffffffffffffffffff1673ffffffffffffffffffffffffffffffffffffffff1673ffffffffffffffffffffffffffffffffffffffff1681526020016002820160009054906101000a900473ffffffffffffffffffffffffffffffffffffffff1673ffffffffffffffffffffffffffffffffffffffff1673ffffffffffffffffffffffffffffffffffffffff16815260200160038201548152602001600482018054610b889061214a565b80601f0160208091040260200160405190810160405280929190818152602001828054610bb49061214a565b8015610c015780601f10610bd657610100808354040283529160200191610c01565b820191906000526020600020905b815481529060010190602001808311610be457829003601f168201915b50505050508152602001600582018054610c1a9061214a565b80601f0160208091040260200160405190810160405280929190818152602001828054610c469061214a565b8015610c935780601f10610c6857610100808354040283529160200191610c93565b820191906000526020600020905b815481529060010190602001808311610c7657829003601f168201915b505050505081526020016006820160009054906101000a900460ff161515151581526020016006820160019054906101000a900460ff16151515158152602001600782018054610ce29061214a565b80601f0160208091040260200160405190810160405280929190818152602001828054610d0e9061214a565b8015610d5b5780601f10610d3057610100808354040283529160200191610d5b565b820191906000526020600020905b815481529060010190602001808311610d3e57829003601f168201915b50505050508152602001600882018054610d749061214a565b80601f0160208091040260200160405190810160405280929190818152602001828054610da09061214a565b8015610ded5780601f10610dc257610100808354040283529160200191610ded565b820191906000526020600020905b815481529060010190602001808311610dd057829003601f168201915b505050505081526020016009820160009054906101000a900460ff166004811115610e1b57610e1a611d0a565b5b6004811115610e2d57610e2c611d0a565b5b81525050838581518110610e4457610e436124ac565b5b6020026020010181905250600184610e5c91906120b8565b9350508080610e6a906124db565b915050610a8a565b50809250505090565b8260005481108015610e8e575060008110155b610ecd576040517f08c379a0000000000000000000000000000000000000000000000000000000008152600401610ec49061256f565b60405180910390fd5b833373ffffffffffffffffffffffffffffffffffffffff166002600083815260200190815260200160002060020160009054906101000a900473ffffffffffffffffffffffffffffffffffffffff1673ffffffffffffffffffffffffffffffffffffffff1603610f72576040517f08c379a0000000000000000000000000000000000000000000000000000000008152600401610f69906125db565b60405180910390fd5b846002600082815260200190815260200160002060060160009054906101000a900460ff1615610fd7576040517f08c379a0000000000000000000000000000000000000000000000000000000008152600401610fce9061266d565b60405180910390fd5b60026000878152602001908152602001600020600301546002610ffa919061268d565b341461103b576040517f08c379a000000000000000000000000000000000000000000000000000000000815260040161103290612741565b60405180910390fd5b600280600088815260200190815260200160002060090160006101000a81548160ff0219169083600481111561107457611073611d0a565b5b0217905550848460026000898152602001908152602001600020600801918261109e92919061276c565b50857f45bd963234a41bc8d75b2e2caf57f0987f5d405e1d4bbf09b919faeff927937c86866040516110d192919061283c565b60405180910390a2505050505050565b60008173ffffffffffffffffffffffffffffffffffffffff16319050919050565b60015481565b600360009054906101000a900460ff1681565b806002600082815260200190815260200160002060060160009054906101000a900460ff1615611180576040517f08c379a00000000000000000000000000000000000000000000000000000000081526004016111779061266d565b60405180910390fd5b7f72c874aeff0b183a56e2b79c71b46e1aed4dee5e09862134b8821ba2fddbf8bf60405160405180910390a160046002600084815260200190815260200160002060090160006101000a81548160ff021916908360048111156111e6576111e5611d0a565b5b021790555060018060008282546111fd9190612860565b925050819055506002600083815260200190815260200160002060010160009054906101000a900473ffffffffffffffffffffffffffffffffffffffff1673ffffffffffffffffffffffffffffffffffffffff166108fc479081150290604051600060405180830381858888f19350505050158015611280573d6000803e3d6000fd5b505050565b823373ffffffffffffffffffffffffffffffffffffffff166002600083815260200190815260200160002060010160009054906101000a900473ffffffffffffffffffffffffffffffffffffffff1673ffffffffffffffffffffffffffffffffffffffff160361132a576040517f08c379a0000000000000000000000000000000000000000000000000000000008152600401611321906128e0565b60405180910390fd5b836000548110801561133d575060008110155b61137c576040517f08c379a00000000000000000000000000000000000000000000000000000000081526004016113739061256f565b60405180910390fd5b846002600082815260200190815260200160002060060160009054906101000a900460ff16156113e1576040517f08c379a00000000000000000000000000000000000000000000000000000000081526004016113d89061266d565b60405180910390fd5b6002600087815260200190815260200160002060060160019054906101000a900460ff1615611445576040517f08c379a000000000000000000000000000000000000000000000000000000000815260040161143c90612972565b60405180910390fd5b60026000878152602001908152602001600020600301543373ffffffffffffffffffffffffffffffffffffffff163110156114b5576040517f08c379a00000000000000000000000000000000000000000000000000000000081526004016114ac90612a04565b60405180910390fd5b600260008781526020019081526020016000206003015460026114d8919061268d565b3414611519576040517f08c379a000000000000000000000000000000000000000000000000000000000815260040161151090612a96565b60405180910390fd5b336002600088815260200190815260200160002060020160006101000a81548173ffffffffffffffffffffffffffffffffffffffff021916908373ffffffffffffffffffffffffffffffffffffffff16021790555060016002600088815260200190815260200160002060060160016101000a81548160ff02191690831515021790555084846002600089815260200190815260200160002060070191826115c292919061276c565b503373ffffffffffffffffffffffffffffffffffffffff167f73faea86159f7dcd77362ca5006cece6202b7f70b30384b1f76d4366d754d7d160026000898152602001908152602001600020878760405161161f93929190612d5f565b60405180910390a2505050505050565b8060005481108015611642575060008110155b611681576040517f08c379a00000000000000000000000000000000000000000000000000000000081526004016116789061256f565b60405180910390fd5b813373ffffffffffffffffffffffffffffffffffffffff166002600083815260200190815260200160002060010160009054906101000a900473ffffffffffffffffffffffffffffffffffffffff1673ffffffffffffffffffffffffffffffffffffffff1603611726576040517f08c379a000000000000000000000000000000000000000000000000000000000815260040161171d906128e0565b60405180910390fd5b826002600082815260200190815260200160002060060160009054906101000a900460ff161561178b576040517f08c379a00000000000000000000000000000000000000000000000000000000081526004016117829061266d565b60405180910390fd5b60016002600086815260200190815260200160002060060160006101000a81548160ff0219169083151502179055506002600085815260200190815260200160002060010160009054906101000a900473ffffffffffffffffffffffffffffffffffffffff1673ffffffffffffffffffffffffffffffffffffffff166108fc6002600087815260200190815260200160002060030154600361182d919061268d565b9081150290604051600060405180830381858888f19350505050158015611858573d6000803e3d6000fd5b506002600085815260200190815260200160002060020160009054906101000a900473ffffffffffffffffffffffffffffffffffffffff1673ffffffffffffffffffffffffffffffffffffffff166108fc60026000878152602001908152602001600020600301549081150290604051600060405180830381858888f193505050501580156118eb573d6000803e3d6000fd5b5060018060008282546118fe9190612860565b9250508190555060036002600086815260200190815260200160002060090160006101000a81548160ff0219169083600481111561193f5761193e611d0a565b5b0217905550836002600086815260200190815260200160002060010160009054906101000a900473ffffffffffffffffffffffffffffffffffffffff1673ffffffffffffffffffffffffffffffffffffffff167fe5317da7a2a5a513758a425cd8d8926ce3e58f239f2c630a790fc6b038dd3bd060405160405180910390a37f3a693b04519b12a171c00a41f82c9b8e6d6feccb5576615e878a42e328dd5634600260008681526020019081526020016000206040516119ff9190612d98565b60405180910390a150505050565b60405180610160016040528060008152602001600073ffffffffffffffffffffffffffffffffffffffff168152602001600073ffffffffffffffffffffffffffffffffffffffff168152602001600081526020016060815260200160608152602001600015158152602001600015158152602001606081526020016060815260200160006004811115611aa357611aa2611d0a565b5b81525090565b600080fd5b600080fd5b6000819050919050565b611ac681611ab3565b8114611ad157600080fd5b50565b600081359050611ae381611abd565b92915050565b600080fd5b600080fd5b600080fd5b60008083601f840112611b0e57611b0d611ae9565b5b8235905067ffffffffffffffff811115611b2b57611b2a611aee565b5b602083019150836001820283011115611b4757611b46611af3565b5b9250929050565b600080600080600060608688031215611b6a57611b69611aa9565b5b6000611b7888828901611ad4565b955050602086013567ffffffffffffffff811115611b9957611b98611aae565b5b611ba588828901611af8565b9450945050604086013567ffffffffffffffff811115611bc857611bc7611aae565b5b611bd488828901611af8565b92509250509295509295909350565b600081519050919050565b600082825260208201905092915050565b6000819050602082019050919050565b611c1881611ab3565b82525050565b600073ffffffffffffffffffffffffffffffffffffffff82169050919050565b6000611c4982611c1e565b9050919050565b611c5981611c3e565b82525050565b600081519050919050565b600082825260208201905092915050565b60005b83811015611c99578082015181840152602081019050611c7e565b60008484015250505050565b6000601f19601f8301169050919050565b6000611cc182611c5f565b611ccb8185611c6a565b9350611cdb818560208601611c7b565b611ce481611ca5565b840191505092915050565b60008115159050919050565b611d0481611cef565b82525050565b7f4e487b7100000000000000000000000000000000000000000000000000000000600052602160045260246000fd5b60058110611d4a57611d49611d0a565b5b50565b6000819050611d5b82611d39565b919050565b6000611d6b82611d4d565b9050919050565b611d7b81611d60565b82525050565b600061016083016000830151611d9a6000860182611c0f565b506020830151611dad6020860182611c50565b506040830151611dc06040860182611c50565b506060830151611dd36060860182611c0f565b5060808301518482036080860152611deb8282611cb6565b91505060a083015184820360a0860152611e058282611cb6565b91505060c0830151611e1a60c0860182611cfb565b5060e0830151611e2d60e0860182611cfb565b50610100830151848203610100860152611e478282611cb6565b915050610120830151848203610120860152611e638282611cb6565b915050610140830151611e7a610140860182611d72565b508091505092915050565b6000611e918383611d81565b905092915050565b6000602082019050919050565b6000611eb182611be3565b611ebb8185611bee565b935083602082028501611ecd85611bff565b8060005b85811015611f095784840389528151611eea8582611e85565b9450611ef583611e99565b925060208a01995050600181019050611ed1565b50829750879550505050505092915050565b60006020820190508181036000830152611f358184611ea6565b905092915050565b600080600060408486031215611f5657611f55611aa9565b5b6000611f6486828701611ad4565b935050602084013567ffffffffffffffff811115611f8557611f84611aae565b5b611f9186828701611af8565b92509250509250925092565b6000611fa882611c1e565b9050919050565b611fb881611f9d565b8114611fc357600080fd5b50565b600081359050611fd581611faf565b92915050565b600060208284031215611ff157611ff0611aa9565b5b6000611fff84828501611fc6565b91505092915050565b61201181611ab3565b82525050565b600060208201905061202c6000830184612008565b92915050565b61203b81611d60565b82525050565b60006020820190506120566000830184612032565b92915050565b60006020828403121561207257612071611aa9565b5b600061208084828501611ad4565b91505092915050565b7f4e487b7100000000000000000000000000000000000000000000000000000000600052601160045260246000fd5b60006120c382611ab3565b91506120ce83611ab3565b92508282019050808211156120e6576120e5612089565b5b92915050565b7f4e487b7100000000000000000000000000000000000000000000000000000000600052604160045260246000fd5b7f4e487b7100000000000000000000000000000000000000000000000000000000600052602260045260246000fd5b6000600282049050600182168061216257607f821691505b6020821081036121755761217461211b565b5b50919050565b60008190508160005260206000209050919050565b60006020601f8301049050919050565b600082821b905092915050565b6000600883026121dd7fffffffffffffffffffffffffffffffffffffffffffffffffffffffffffffffff826121a0565b6121e786836121a0565b95508019841693508086168417925050509392505050565b6000819050919050565b600061222461221f61221a84611ab3565b6121ff565b611ab3565b9050919050565b6000819050919050565b61223e83612209565b61225261224a8261222b565b8484546121ad565b825550505050565b600090565b61226761225a565b612272818484612235565b505050565b5b818110156122965761228b60008261225f565b600181019050612278565b5050565b601f8211156122db576122ac8161217b565b6122b584612190565b810160208510156122c4578190505b6122d86122d085612190565b830182612277565b50505b505050565b600082821c905092915050565b60006122fe600019846008026122e0565b1980831691505092915050565b600061231783836122ed565b9150826002028217905092915050565b61233082611c5f565b67ffffffffffffffff811115612349576123486120ec565b5b612353825461214a565b61235e82828561229a565b600060209050601f831160018114612391576000841561237f578287015190505b612389858261230b565b8655506123f1565b601f19841661239f8661217b565b60005b828110156123c7578489015182556001820191506020850194506020810190506123a2565b868310156123e457848901516123e0601f8916826122ed565b8355505b6001600288020188555050505b505050505050565b61240281611f9d565b82525050565b600082825260208201905092915050565b82818337600083830152505050565b60006124348385612408565b9350612441838584612419565b61244a83611ca5565b840190509392505050565b600060808201905061246a60008301896123f9565b6124776020830188612008565b818103604083015261248a818688612428565b9050818103606083015261249f818486612428565b9050979650505050505050565b7f4e487b7100000000000000000000000000000000000000000000000000000000600052603260045260246000fd5b60006124e682611ab3565b91507fffffffffffffffffffffffffffffffffffffffffffffffffffffffffffffffff820361251857612517612089565b5b600182019050919050565b7f496e76616c6964204c697374696e672049640000000000000000000000000000600082015250565b6000612559601283612408565b915061256482612523565b602082019050919050565b600060208201905081810360008301526125888161254c565b9050919050565b7f496e76616c69642062656e656669636961727900000000000000000000000000600082015250565b60006125c5601383612408565b91506125d08261258f565b602082019050919050565b600060208201905081810360008301526125f4816125b8565b9050919050565b7f4974656d2068617320616c7265616479206265656e20626f75676874202f207760008201527f697468647261776e000000000000000000000000000000000000000000000000602082015250565b6000612657602883612408565b9150612662826125fb565b604082019050919050565b600060208201905081810360008301526126868161264a565b9050919050565b600061269882611ab3565b91506126a383611ab3565b92508282026126b181611ab3565b915082820484148315176126c8576126c7612089565b5b5092915050565b7f596f752068617665206e6f74207061696420746865207365637572697479206460008201527f65706f7369740000000000000000000000000000000000000000000000000000602082015250565b600061272b602683612408565b9150612736826126cf565b604082019050919050565b6000602082019050818103600083015261275a8161271e565b9050919050565b600082905092915050565b6127768383612761565b67ffffffffffffffff81111561278f5761278e6120ec565b5b612799825461214a565b6127a482828561229a565b6000601f8311600181146127d357600084156127c1578287013590505b6127cb858261230b565b865550612833565b601f1984166127e18661217b565b60005b82811015612809578489013582556001820191506020850194506020810190506127e4565b868310156128265784890135612822601f8916826122ed565b8355505b6001600288020188555050505b50505050505050565b60006020820190508181036000830152612857818486612428565b90509392505050565b600061286b82611ab3565b915061287683611ab3565b925082820390508181111561288e5761288d612089565b5b92915050565b7f496e76616c696420427579657200000000000000000000000000000000000000600082015250565b60006128ca600d83612408565b91506128d582612894565b602082019050919050565b600060208201905081810360008301526128f9816128bd565b9050919050565b7f746865206974656d20616c72656164792068617320612062757965722c696e2060008201527f6d69647374206f66207472616e73616374696f6e000000000000000000000000602082015250565b600061295c603483612408565b915061296782612900565b604082019050919050565b6000602082019050818103600083015261298b8161294f565b9050919050565b7f496e737566696369656e742042616c616e636520666f72207472616e7361637460008201527f696f6e0000000000000000000000000000000000000000000000000000000000602082015250565b60006129ee602383612408565b91506129f982612992565b604082019050919050565b60006020820190508181036000830152612a1d816129e1565b9050919050565b7f546865207265717569726564206465706f73697420666f72207468652070757260008201527f6368617365206e6f7420676976656e2000000000000000000000000000000000602082015250565b6000612a80603083612408565b9150612a8b82612a24565b604082019050919050565b60006020820190508181036000830152612aaf81612a73565b9050919050565b60008160001c9050919050565b6000819050919050565b6000612ae0612adb83612ab6565b612ac3565b9050919050565b600073ffffffffffffffffffffffffffffffffffffffff82169050919050565b6000612b1a612b1583612ab6565b612ae7565b9050919050565b60008154612b2e8161214a565b612b388186611c6a565b94506001821660008114612b535760018114612b6957612b9c565b60ff198316865281151560200286019350612b9c565b612b728561217b565b60005b83811015612b9457815481890152600182019150602081019050612b75565b808801955050505b50505092915050565b600060ff82169050919050565b6000612bc5612bc083612ab6565b612ba5565b9050919050565b60008160081c9050919050565b6000612bec612be783612bcc565b612ba5565b9050919050565b600060ff82169050919050565b6000612c13612c0e83612ab6565b612bf3565b9050919050565b600061016083016000808401549050612c3281612acd565b612c3f6000870182611c0f565b5060018401549050612c5081612b07565b612c5d6020870182611c50565b5060028401549050612c6e81612b07565b612c7b6040870182611c50565b5060038401549050612c8c81612acd565b612c996060870182611c0f565b50600484018583036080870152612cb08382612b21565b9250506005840185830360a0870152612cc98382612b21565b92505060068401549050612cdc81612bb2565b612ce960c0870182611cfb565b50612cf381612bd9565b612d0060e0870182611cfb565b5060078401858303610100870152612d188382612b21565b92505060088401858303610120870152612d328382612b21565b92505060098401549050612d4581612c00565b612d53610140870182611d72565b50819250505092915050565b60006040820190508181036000830152612d798186612c1a565b90508181036020830152612d8e818486612428565b9050949350505050565b60006020820190508181036000830152612db28184612c1a565b90509291505056fea2646970667358221220bd5b61eb0822c2910456facb19ad3cf56f3af425b579ba18b0b0d4738fca084964736f6c63430008110033",
  "immutableReferences": {},
  "source": "/// SPDX-License-Identifier: MIT\r\npragma solidity >=0.4.22 <0.9.0;\r\npragma experimental ABIEncoderV2;\r\n\r\n/// @title The contract for buying and selling items on a market\r\ncontract Market {\r\n    uint256 current_auction_id = 0;\r\n    uint256 public activelistings = 0;\r\n\r\n    struct Bid {\r\n        bytes32 bidHash;\r\n        uint256 bidAmount;\r\n    }\r\n    /// @notice structure for each listings\r\n    /// @dev uint is the unique listing id\r\n    /// @dev beneficiary stores the beneficiary address\r\n    /// @dev buyer stores the buyer address\r\n    /// @dev price is the price of the item\r\n    /// @dev item_name is the name of the item\r\n    /// @dev item_description has the description of the item\r\n\r\n    struct listings {\r\n        uint256 auction_id;\r\n        address payable beneficiary;\r\n        address payable buyer;\r\n        uint256 price;\r\n        string item_name;\r\n        string item_description;\r\n        bool sold_or_withdrawn;\r\n        bool buyer_alloted;\r\n        string pubkey;\r\n        string H;\r\n        State state;\r\n    }\r\n\r\n    /// @dev this event is emitted when a listing is created\r\n    event ListingCreated(\r\n        uint256 indexed auction_id,\r\n        address beneficiary,\r\n        uint256 price,\r\n        string item_name,\r\n        string item_description\r\n    );\r\n    /// @dev this event is for when listing is modified ,item sold or withdrawn\r\n    event ListingChanged(address indexed beneficiary, uint256 indexed index);\r\n    /// @dev this event is for when item purchase is requested by buyer\r\n    event PurchaseRequested(\r\n        listings list,\r\n        address indexed buyer,\r\n        string pub_key\r\n    );\r\n    /// @dev this event is for when beneficiary confirms item purchase by buyer\r\n    event encryptedKey(uint256 indexed auction_id, string H);\r\n    /// @dev event emitted when the a item is bought and both the beneficiary and buyer gets the money/item\r\n    event PurchaseComplete(listings list);\r\n    /// @dev this event is for when transaction is aborted\r\n    event Aborted();\r\n\r\n    /// @dev this event is for when listing is modified ,item sold or withdrawn\r\n    event AuctionStarted(address winner, uint256 highestBid);\r\n    /// @dev this event is for when listing is modified ,item sold or withdrawn\r\n    event AuctionEnded(address winner, uint256 highestBid);\r\n\r\n    /// @dev create a listing for all possible listing id and make it private\r\n    mapping(uint256 => listings) private Listings;\r\n\r\n    /// @dev State variables for the items listed. By default, it is Created\r\n    enum State {\r\n        Created,\r\n        Active,\r\n        Sold,\r\n        Delivered,\r\n        Inactive\r\n    }\r\n    State public state;\r\n\r\n    /// @notice Check whether a given condition is true\r\n    /// @param _condition condition statement to verify.\r\n    modifier condition(bool _condition) {\r\n        require(_condition);\r\n        _;\r\n    }\r\n\r\n    /// @notice beneficiary cannot be buyer of the same item\r\n    /// @param auction_id Id of the listing.\r\n    modifier ValidBuyer(uint256 auction_id) {\r\n        require(\r\n            Listings[auction_id].beneficiary != msg.sender,\r\n            \"Invalid Buyer\"\r\n        );\r\n        _;\r\n    }\r\n\r\n    /// @notice Buyer cannot be beneficiary of the same item\r\n    /// @param auction_id Id of the listing.\r\n    modifier Validbeneficiary(uint256 auction_id) {\r\n        require(\r\n            Listings[auction_id].buyer != msg.sender,\r\n            \"Invalid beneficiary\"\r\n        );\r\n        _;\r\n    }\r\n\r\n    /// @notice Check that an item is available\r\n    /// @param auction_id Id of the listing.\r\n    modifier CheckState(uint256 auction_id) {\r\n        require(\r\n            !Listings[auction_id].sold_or_withdrawn,\r\n            \"Item has already been bought / withdrawn\"\r\n        );\r\n        _;\r\n    }\r\n\r\n    /// @notice Item in use should be a valid listing\r\n    /// @param auction_id Id of the listing.\r\n    modifier ValidListing(uint256 auction_id) {\r\n        require(\r\n            auction_id < current_auction_id && auction_id >= 0,\r\n            \"Invalid Listing Id\"\r\n        );\r\n        _;\r\n    }\r\n\r\n    modifier onlyBefore(uint256 _time) {\r\n        require(block.timestamp < _time);\r\n        _;\r\n    }\r\n    modifier onlyAfter(uint256 _time) {\r\n        require(block.timestamp > _time);\r\n        _;\r\n    }\r\n\r\n    /// @notice Check that the string meets the required criteria\r\n    /// @param str The item string.\r\n    modifier ValidString(string memory str) {\r\n        require(\r\n            bytes(str).length <= 50,\r\n            \"String Length is 50 characters maximum\"\r\n        );\r\n        _;\r\n    }\r\n\r\n    /// @notice returns balance of account\r\n    /// @param account Address of the account.\r\n    function getAccountBalance(address account)\r\n        public\r\n        view\r\n        returns (uint256 accountBalance)\r\n    {\r\n        accountBalance = account.balance;\r\n    }\r\n\r\n    /// @notice Create a listing for sale in the market place\r\n    /// @param price Price of the item listed.\r\n    /// @param item_name Name of item listed\r\n    /// @param item_description Description of item.\r\n    function createListings(\r\n        uint256 price,\r\n        string calldata item_name,\r\n        string calldata item_description\r\n    ) external payable condition(price > 0) {\r\n        uint256 auction_id = current_auction_id;\r\n        current_auction_id += 1;\r\n        activelistings += 1;\r\n\r\n        Listings[auction_id] = listings(\r\n            auction_id,\r\n            payable (msg.sender),\r\n            payable (address(0)),\r\n            price,\r\n            item_name,\r\n            item_description,\r\n            false,\r\n            false,\r\n            \"\",\r\n            \"\",\r\n            State.Active\r\n        );\r\n        /// @dev emit the update\r\n        emit ListingCreated(\r\n            auction_id,\r\n            msg.sender,\r\n            price,\r\n            item_name,\r\n            item_description\r\n        );\r\n        emit ListingChanged(msg.sender, activelistings);\r\n    }\r\n\r\n    /// @notice Get all the active listings items in the market\r\n    /// @return a list of active listings\r\n    function fetchactivelistings() external view returns (listings[] memory) {\r\n        uint256 currentIndex = 0;\r\n\r\n        listings[] memory active_list = new listings[](activelistings);\r\n        for (uint256 i = 0; i < current_auction_id; i++) {\r\n            /// @dev only consider listings which are unsold/not withdrawn\r\n            if (Listings[i].sold_or_withdrawn == false) {\r\n                listings storage currentlisting = Listings[i];\r\n                active_list[currentIndex] = currentlisting;\r\n                currentIndex += 1;\r\n            }\r\n        }\r\n        return active_list;\r\n    }\r\n\r\n    /// Get all the listings items in the market\r\n    /// @return a list of all listings\r\n    function fetchalllistings() external view returns (listings[] memory) {\r\n        uint256 currentIndex = 0;\r\n\r\n        listings[] memory list = new listings[](current_auction_id);\r\n        for (uint256 i = 0; i < current_auction_id; i++) {\r\n            listings storage currentlisting = Listings[i];\r\n            list[currentIndex] = currentlisting;\r\n            currentIndex += 1;\r\n        }\r\n        return list;\r\n    }\r\n\r\n    /// @notice Request from buyer to beneficiary for item's purchase\r\n    /// @dev the contract emits a event to let the beneficiary know that an buyer has been found\r\n    /// @param auction_id is the id of the item buyer is interested in\r\n    function requestBuy(uint256 auction_id, string calldata pubkey)\r\n        external\r\n        payable\r\n        ValidBuyer(auction_id)\r\n        ValidListing(auction_id)\r\n        CheckState(auction_id)\r\n    {\r\n        /// Check whether item has a buyer already\r\n        require(\r\n            !Listings[auction_id].buyer_alloted,\r\n            \"the item already has a buyer,in midst of transaction\"\r\n        );\r\n\r\n        /// Check sufficient balance for transfer\r\n        require(\r\n            msg.sender.balance >= Listings[auction_id].price,\r\n            \"Insuficient Balance for transaction\"\r\n        );\r\n\r\n        /// Check whether you have provided 2 times the selling price,for security purposes\r\n        require(\r\n            msg.value == 2 * Listings[auction_id].price,\r\n            \"The required deposit for the purchase not given \"\r\n        );\r\n\r\n        /// Let the beneficiary know you have found a buyer\r\n        Listings[auction_id].buyer = payable(msg.sender);\r\n        Listings[auction_id].buyer_alloted = true;\r\n        Listings[auction_id].pubkey = pubkey;\r\n        emit PurchaseRequested(Listings[auction_id], msg.sender, pubkey);\r\n    }\r\n\r\n    /// @notice Sale of item from beneficiary's side\r\n    /// @dev Transaction from the beneficiary\r\n    /// @dev listing id is the id of the item being sold_\r\n    /// @dev H is the unique string for the item\r\n    function sellItem(uint256 auction_id, string calldata H)\r\n        external\r\n        payable\r\n        ValidListing(auction_id)\r\n        Validbeneficiary(auction_id)\r\n        CheckState(auction_id)\r\n    {\r\n        /// Check the security deposits\r\n        require(\r\n            msg.value == 2 * Listings[auction_id].price,\r\n            \"You have not paid the security deposit\"\r\n        );\r\n        Listings[auction_id].state = State.Sold;\r\n        Listings[auction_id].H = H;\r\n        /// Listings[auction_id].sold_or_withdrawn = true;\r\n\r\n        emit encryptedKey(auction_id, H);\r\n    }\r\n\r\n    /// @notice Confirmation from buyer on receiving item\r\n    /// @dev the buyer confirms to get the refund of the money owed.(price)\r\n    /// @dev the beneficiary gets his amount + price (3 * price)\r\n    /// @param auction_id the listing id is the item being exchanged\r\n    function confirmDelivery(uint256 auction_id)\r\n        external\r\n        payable\r\n        ValidListing(auction_id)\r\n        ValidBuyer(auction_id)\r\n        CheckState(auction_id)\r\n    {\r\n        /// Refund the beneficiary\r\n        Listings[auction_id].sold_or_withdrawn = true;\r\n        Listings[auction_id].beneficiary.transfer(\r\n            3 * Listings[auction_id].price\r\n        );\r\n        /// Refund the buyer\r\n        Listings[auction_id].buyer.transfer(Listings[auction_id].price);\r\n        activelistings -= 1;\r\n        Listings[auction_id].state = State.Delivered;\r\n        emit ListingChanged(Listings[auction_id].beneficiary, auction_id);\r\n        emit PurchaseComplete(Listings[auction_id]);\r\n    }\r\n\r\n    /// @notice Abort the purchase and reclaim the ether.\r\n    function abort(uint256 auction_id) public CheckState(auction_id) {\r\n        emit Aborted();\r\n        Listings[auction_id].state = State.Inactive;\r\n        activelistings -= 1;\r\n        Listings[auction_id].beneficiary.transfer(address(this).balance);\r\n    }\r\n}",
  "sourcePath": "C:\\Users\\VietAi\\OneDrive\\My tnh\\demo\\contracts\\Market.sol",
  "compiler": {
    "name": "solc",
    "version": "0.8.17+commit.8df45f5f.Emscripten.clang"
  },
  "schemaVersion": "3.4.10",
  "updatedAt": "2022-11-20T03:30:30.235Z",
  "networkType": "ethereum",
  "devdoc": {
    "events": {
      "Aborted()": {
        "details": "this event is for when transaction is aborted"
      },
      "AuctionEnded(address,uint256)": {
        "details": "this event is for when listing is modified ,item sold or withdrawn"
      },
      "AuctionStarted(address,uint256)": {
        "details": "this event is for when listing is modified ,item sold or withdrawn"
      },
      "ListingChanged(address,uint256)": {
        "details": "this event is for when listing is modified ,item sold or withdrawn"
      },
      "ListingCreated(uint256,address,uint256,string,string)": {
        "details": "this event is emitted when a listing is created"
      },
      "PurchaseComplete((uint256,address,address,uint256,string,string,bool,bool,string,string,uint8))": {
        "details": "event emitted when the a item is bought and both the beneficiary and buyer gets the money/item"
      },
      "PurchaseRequested((uint256,address,address,uint256,string,string,bool,bool,string,string,uint8),address,string)": {
        "details": "this event is for when item purchase is requested by buyer"
      },
      "encryptedKey(uint256,string)": {
        "details": "this event is for when beneficiary confirms item purchase by buyer"
      }
    },
    "kind": "dev",
    "methods": {
      "confirmDelivery(uint256)": {
        "details": "the buyer confirms to get the refund of the money owed.(price)the beneficiary gets his amount + price (3 * price)",
        "params": {
          "auction_id": "the listing id is the item being exchanged"
        }
      },
      "createListings(uint256,string,string)": {
        "params": {
          "item_description": "Description of item.",
          "item_name": "Name of item listed",
          "price": "Price of the item listed."
        }
      },
      "fetchactivelistings()": {
        "returns": {
          "_0": "a list of active listings"
        }
      },
      "fetchalllistings()": {
        "returns": {
          "_0": "a list of all listings"
        }
      },
      "getAccountBalance(address)": {
        "params": {
          "account": "Address of the account."
        }
      },
      "requestBuy(uint256,string)": {
        "details": "the contract emits a event to let the beneficiary know that an buyer has been found",
        "params": {
          "auction_id": "is the id of the item buyer is interested in"
        }
      },
      "sellItem(uint256,string)": {
        "details": "Transaction from the beneficiarylisting id is the id of the item being sold_H is the unique string for the item"
      }
    },
    "stateVariables": {
      "Listings": {
        "details": "create a listing for all possible listing id and make it private"
      }
    },
    "title": "The contract for buying and selling items on a market",
    "version": 1
  },
  "userdoc": {
    "kind": "user",
    "methods": {
      "abort(uint256)": {
        "notice": "Abort the purchase and reclaim the ether."
      },
      "confirmDelivery(uint256)": {
        "notice": "Confirmation from buyer on receiving item"
      },
      "createListings(uint256,string,string)": {
        "notice": "Create a listing for sale in the market place"
      },
      "fetchactivelistings()": {
        "notice": "Get all the active listings items in the market"
      },
      "fetchalllistings()": {
        "notice": "Get all the listings items in the market"
      },
      "getAccountBalance(address)": {
        "notice": "returns balance of account"
      },
      "requestBuy(uint256,string)": {
        "notice": "Request from buyer to beneficiary for item's purchase"
      },
      "sellItem(uint256,string)": {
        "notice": "Sale of item from beneficiary's side"
      }
    },
    "version": 1
  }
}